{
  "contractName": "Meditran",
  "abi": [
    {
      "inputs": [],
      "payable": false,
      "stateMutability": "nonpayable",
      "type": "constructor"
    },
    {
      "constant": true,
      "inputs": [
        {
          "internalType": "uint256",
          "name": "",
          "type": "uint256"
        }
      ],
      "name": "hashArray",
      "outputs": [
        {
          "internalType": "bytes32",
          "name": "",
          "type": "bytes32"
        }
      ],
      "payable": false,
      "stateMutability": "view",
      "type": "function"
    },
    {
      "constant": true,
      "inputs": [],
      "name": "transactionCount",
      "outputs": [
        {
          "internalType": "uint256",
          "name": "",
          "type": "uint256"
        }
      ],
      "payable": false,
      "stateMutability": "view",
      "type": "function"
    },
    {
      "constant": true,
      "inputs": [
        {
          "internalType": "uint256",
          "name": "",
          "type": "uint256"
        }
      ],
      "name": "transactions",
      "outputs": [
        {
          "internalType": "uint256",
          "name": "id",
          "type": "uint256"
        },
        {
          "internalType": "uint256",
          "name": "batch_id",
          "type": "uint256"
        },
        {
          "internalType": "string",
          "name": "transaction_hash",
          "type": "string"
        },
        {
          "internalType": "uint256",
          "name": "value",
          "type": "uint256"
        },
        {
          "internalType": "string",
          "name": "expiry_date",
          "type": "string"
        },
        {
          "internalType": "uint256",
          "name": "timestamp",
          "type": "uint256"
        }
      ],
      "payable": false,
      "stateMutability": "view",
      "type": "function"
    },
    {
      "constant": false,
      "inputs": [
        {
          "internalType": "uint256",
          "name": "_batch_id",
          "type": "uint256"
        },
        {
          "internalType": "string",
          "name": "_transaction_hash",
          "type": "string"
        },
        {
          "internalType": "uint256",
          "name": "_value",
          "type": "uint256"
        },
        {
          "internalType": "string",
          "name": "_expirey_date",
          "type": "string"
        }
      ],
      "name": "createTransaction",
      "outputs": [],
      "payable": false,
      "stateMutability": "nonpayable",
      "type": "function"
    }
  ],
  "bytecode": "0x60806040526000805534801561001457600080fd5b5061005b6000604051806040016040528060018152602001600360fc1b8152506000604051806040016040528060018152602001600360fc1b81525061006060201b60201c565b6101a0565b6000805460019081018083556040805160c08101825282815260208082018a81528284018a8152606084018a9052608084018990524260a085015294875260158252929095208151815591519382019390935590518051929391926100cb9260028501920190610105565b5060608201516003820155608082015180516100f1916004840191602090910190610105565b5060a0820151816005015590505050505050565b828054600181600116156101000203166002900490600052602060002090601f016020900481019282601f1061014657805160ff1916838001178555610173565b82800160010185558215610173579182015b82811115610173578251825591602001919060010190610158565b5061017f929150610183565b5090565b61019d91905b8082111561017f5760008155600101610189565b90565b6105b2806101af6000396000f3fe608060405234801561001057600080fd5b506004361061004c5760003560e01c80638406d2e3146100515780639ace38c21461018f578063b77bf600146102a6578063e0fdae08146102c0575b600080fd5b61018d6004803603608081101561006757600080fd5b8135919081019060408101602082013564010000000081111561008957600080fd5b82018360208201111561009b57600080fd5b803590602001918460018302840111640100000000831117156100bd57600080fd5b91908080601f0160208091040260200160405190810160405280939291908181526020018383808284376000920191909152509295843595909490935060408101925060200135905064010000000081111561011857600080fd5b82018360208201111561012a57600080fd5b8035906020019184600183028401116401000000008311171561014c57600080fd5b91908080601f0160208091040260200160405190810160405280939291908181526020018383808284376000920191909152509295506102dd945050505050565b005b6101ac600480360360208110156101a557600080fd5b5035610382565b604051808781526020018681526020018060200185815260200180602001848152602001838103835287818151815260200191508051906020019080838360005b838110156102055781810151838201526020016101ed565b50505050905090810190601f1680156102325780820380516001836020036101000a031916815260200191505b50838103825285518152855160209182019187019080838360005b8381101561026557818101518382015260200161024d565b50505050905090810190601f1680156102925780820380516001836020036101000a031916815260200191505b509850505050505050505060405180910390f35b6102ae6104c8565b60408051918252519081900360200190f35b6102ae600480360360208110156102d657600080fd5b50356104ce565b6000805460019081018083556040805160c08101825282815260208082018a81528284018a8152606084018a9052608084018990524260a0850152948752601582529290952081518155915193820193909355905180519293919261034892600285019201906104e2565b50606082015160038201556080820151805161036e9160048401916020909101906104e2565b5060a0820151816005015590505050505050565b60156020908152600091825260409182902080546001808301546002808501805488519481161561010002600019011691909104601f8101879004870284018701909752868352929590949192918301828280156104215780601f106103f657610100808354040283529160200191610421565b820191906000526020600020905b81548152906001019060200180831161040457829003601f168201915b50505050600383015460048401805460408051602060026001851615610100026000190190941693909304601f810184900484028201840190925281815295969395939450908301828280156104b85780601f1061048d576101008083540402835291602001916104b8565b820191906000526020600020905b81548152906001019060200180831161049b57829003601f168201915b5050505050908060050154905086565b60005481565b600181601481106104db57fe5b0154905081565b828054600181600116156101000203166002900490600052602060002090601f016020900481019282601f1061052357805160ff1916838001178555610550565b82800160010185558215610550579182015b82811115610550578251825591602001919060010190610535565b5061055c929150610560565b5090565b61057a91905b8082111561055c5760008155600101610566565b9056fea265627a7a723158202d0f5055a426127e290c9081e7ea5ee453f14567b05df0b954b3c6c8f0592a3764736f6c63430005100032",
  "source": "// SPDX-License-Identifier: MIT\npragma solidity >=0.4.22 <0.8.0;\n\ncontract Meditran {\n\n    uint public transactionCount = 0;\n    bytes32[20] public hashArray;\n\n    struct Transaction {\n        uint id;\n        uint batch_id;\n        string transaction_hash;\n        uint value;\n        string expiry_date;\n        uint256 timestamp;\n    }\n\n    mapping(uint => Transaction) public transactions;\n\n\n    constructor() public {\n        createTransaction(0,\"0\",0,\"0\");\n    }\n\n    function createTransaction(uint _batch_id, string memory _transaction_hash, uint  _value, string  memory _expirey_date) public {\n        transactionCount ++;\n        transactions[transactionCount] = Transaction(transactionCount,_batch_id,_transaction_hash,_value,_expirey_date,block.timestamp);\n        // emit TaskCreated(taskCount, _content, false);\n    }\n\n    // function getTransaction() external view returns(uint[] memory, uint[] memory, bytes32[] memory, uint[] memory, uint256[] memory, uint256[] memory) {\n    //     uint[] memory id = new uint[](transactionCount);\n    //     uint[] memory batch_id = new uint[](transactionCount);\n    //     bytes32[] memory transaction_hash = new bytes32[](transactionCount);\n    //     uint[] memory value = new uint[](transactionCount);\n    //     uint256[] memory expiry_date = new uint256[] (transactionCount);\n    //     uint256[] memory timestamp = new uint256[] (transactionCount);\n\n    //     for(uint i = 1;i<=transactionCount;i++){\n    //         id[i] = transactions[i].id;\n    //         batch_id[i] = transactions[i].batch_id;\n    //         transaction_hash[i] = transactions[i].transaction_hash;\n    //         value[i] = transactions[i].value;\n    //         expiry_date[i] = transactions[i].expiry_date;\n    //         timestamp[i] = transactions[i].timestamp;\n    //     }\n\n    //     return(id,batch_id,transaction_hash,value,expiry_date,timestamp);\n    // }\n\n    // function getTransaction(uint _batch_id) internal {\n        \n    //     uint256 k = 0;\n    //     for(uint256 i = 0;i<=transactionCount;i++){\n    //         if(_batch_id == transactions[i].batch_id){\n    //             hashArray[k] = transactions[i].transaction_hash;\n    //             k++;\n    //         }\n    //     }\n    // }\n\n    // function returnTransaction(uint _batch_id) public returns (bytes32[20] memory){\n    //     getTransaction(_batch_id);\n    //     return hashArray;\n\n    // }\n}\n",
  "sourcePath": "/Users/vivek/Desktop/ethereum/medichain/contracts/Meditran.sol",
  "compiler": {
    "name": "solc",
    "version": "0.5.16+commit.9c3226ce.Emscripten.clang"
  },
  "schemaVersion": "3.3.0",
  "updatedAt": "2020-10-18T10:48:03.042Z",
  "networkType": "ethereum",
  "devdoc": {
    "methods": {}
  },
  "userdoc": {
    "methods": {}
  }
}